:020000040800F2
:1000000010090020450100087D0900084707000885
:10001000790900086D0400086F170008000000004F
:10002000000000000000000000000000FD0A0008C1
:100030008505000800000000050A0008F10F00080F
:100040005F0100085F0100085F0100085F01000810
:100050005F0100085F0100085F0100085F01000800
:100060005F0100085F0100085F0100085F010008F0
:100070005F0100085F0100085F0100085F010008E0
:100080005F0100085F0100085F0100085F010008D0
:100090005F0100085F0100085F0100085F010008C0
:1000A0005F0100085F0100085F0100085F010008B0
:1000B0005F0100085F0100085F0100085F010008A0
:1000C0005F0100085F0100085F0100085F01000890
:1000D0005F01000871150008951500085F01000810
:1000E0005F0100085F0100085F0100085F01000870
:1000F0005F0100085F0100085F0100085F01000860
:100100005F0100085F0100085F0100085F0100084F
:100110005F0100085F0100085F0100085F0100083F
:100120005F0100085F0100085F0100085F0100082F
:10013000DFF80CD000F0A6F8004800471D190008B1
:10014000100900200648804706480047FEE7FEE702
:10015000FEE7FEE7FEE7FEE7FEE7FEE7FEE7FEE777
:10016000F50F000831010008421C10F8011B00299E
:10017000FBD1801A7047034611F8012B00F8012BC0
:10018000002AF9D1184670470EB5C10F80EAE07019
:100190000844CA07002140F233438DE80E000A46A6
:1001A0000B4600F021F803B000BD202A04DB203A02
:1001B00021FA02F00021704721FA02F3D040C2F187
:1001C0002002914008431946704710B5141E73F180
:1001D000000408DA401C41F1000192185B411A4307
:1001E00001D120F0010010BD2DE9F04D92469B4653
:1001F00011B1B1FA81F202E0B0FA80F220329046F9
:1002000000F052F804460F4640EA0A0041EA0B01AA
:1002100053465A46084313D0114653EA010019D0F9
:10022000C8F140025046FFF7C0FF05460E46504653
:100230005946424600F038F8084305D0012004E052
:1002400020463946BDE8F08D0020054346EAE076B9
:100250002C4337430A986305E40AA0EB0800002208
:10026000FD0A44EA47540A3002D500200146E9E776
:10027000010510196941DDE9084500196941BDE82A
:10028000F04DA2E7064C074D06E0E06840F00103A0
:1002900094E8070098471034AC42F6D3FFF74CFFC0
:1002A000D01B0008F01B0008202A04DB203A00FACB
:1002B00002F1002070479140C2F1200320FA03F3BD
:1002C000194390407047000001460C48026804E062
:1002D0008A4201D1012070475268002AF8D10848AB
:1002E0000088088006480088401C054B1880034899
:1002F00000684860014801600020ECE738000020F9
:100300003000002001460C48026804E08A4201D116
:1003100001207047D269002AF8D108480088088077
:1003200006480088401C054B188003480068C861D7
:10033000014801600020ECE73C0000203000002074
:1003400001460C48026804E08A4201D1012070474E
:100350001269002AF8D108480088088006480088F9
:10036000401C054B18800348006808610148016083
:100370000020ECE74C0000203000002001460C4833
:10038000026804E08A4201D1012070475268002AC5
:10039000F8D108480088088006480088401C054BB2
:1003A0001880034800684860014801600020ECE7BD
:1003B000480000203000002001460C48026804E09C
:1003C0008A4201D101207047D268002AF8D108483A
:1003D0000088088006480088401C054B18800348A8
:1003E0000068C860014801600020ECE7440000207C
:1003F0003000002001460C48026804E08A4201D126
:1004000001207047D268002AF8D108480088088087
:1004100006480088401C054B188003480068C860E7
:10042000014801600020ECE740000020300000207F
:1004300001460C48026804E08A4201D1012070475D
:100440005268002AF8D108480088088006480088C9
:10045000401C054B18800348006848600148016053
:100460000020ECE7340000203000002000BFFEE751
:100470001FB504462046FFF727FF00B11FBD02212C
:10048000114801F025F80A2001F030F8202001F091
:100490002DF80221204601F01BF8022101A801F0ED
:1004A00017F8022102A801F013F8022103A801F0B5
:1004B0000FF8022106A801F00BF80221034801F011
:1004C00007F800BFDAE700002C0000202E00002013
:1004D00007B502210A4800F0FBFF062001F006F8EC
:1004E000232001F003F80221684600F0F1FF042107
:1004F00002A800F0EDFF0221024800F0E9FF0EBD66
:100500002C0000202E00002037B5144602210D4893
:1005100000F0DEFF002000F0E9FF222000F0E6FFFF
:100520000221684600F0D4FF03E0207800F0DEFFEF
:10053000641C20780028F8D10221034800F0C8FF8D
:100540003EBD00002C0000202E00002007B5022137
:100550000A4800F0BDFF062000F0C8FF242000F08C
:10056000C5FF0221684600F0B3FF042102A800F095
:10057000AFFF0221024800F0ABFF0EBD2C000020AF
:100580002E000020704700001FB504462046FFF7EC
:10059000B9FE00B11FBD0221114800F099FF0A20E9
:1005A00000F0A4FF302000F0A1FF0221204600F05F
:1005B0008FFF022101A800F08BFF022102A800F0AA
:1005C00087FF022103A800F083FF022106A800F0A4
:1005D0007FFF0221034800F07BFF00BFDAE7000045
:1005E0002C0000202E0000200FB410B50A9C022120
:1005F0000D4800F06DFF002000F078FF332000F080
:1006000075FF022102A800F063FF03E0207800F0EC
:100610006DFF641C20780028F8D10221034800F007
:1006200057FF10BC5DF814FB2C0000202E000020AA
:100630002DE9F04102460025002600200023002479
:10064000002791F803C00CF00F0591F803C00CF0DF
:10065000100CBCF1000F03D091F802C04CEA050564
:1006600091F800C0BCF1000F31D0146800202BE0DD
:100670004FF0010C0CFA00F3B1F800C00CEA0306CD
:100680009E4220D183004FF00F0C0CFA03F7BC43BD
:1006900005FA03FC4CEA040491F803C0BCF1280FEE
:1006A00006D14FF0010C0CFA00FCC2F814C00AE0AD
:1006B00091F803C0BCF1480F05D14FF0010C0CFAC2
:1006C00000FCC2F810C0401C0828D1D31460B1F857
:1006D00000C0BCF1FF0F34DD546800202EE000F1B3
:1006E000080C4FF0010808FA0CF3B1F800C00CEA4E
:1006F00003069E4221D183004FF00F0C0CFA03F742
:10070000BC4305FA03FC4CEA040491F803C0BCF1B5
:10071000280F05D100F1080C08FA0CF8C2F8148073
:1007200091F803C0BCF1480F07D100F1080C4FF05D
:10073000010808FA0CF8C2F81080401C0828CED333
:100740005460BDE8F08100BFFEE700001FB504461D
:100750002046FFF7F5FD00B11FBD64206060A0607A
:100760000221114800F0B4FE0A2000F0BFFE702004
:1007700000F0BCFE0221204600F0AAFE022101A8E2
:1007800000F0A6FE022102A800F0A2FE022103A8AA
:1007900000F09EFE022106A800F09AFE0221034806
:1007A00000F096FE00BFD7E72C0000202E000020AE
:1007B0000FB410B502210C4800F08AFE062000F0AC
:1007C00095FE722000F092FE022102A800F080FE49
:1007D000042107A800F07CFE0221044800F078FE06
:1007E00010BC5DF814FB00002C0000202E0000203F
:1007F0000FB410B502210C4800F06AFE062000F08C
:1008000075FE732000F072FE022102A800F060FE67
:10081000042107A800F05CFE0221044800F058FE05
:1008200010BC5DF814FB00002C0000202E000020FE
:100830001FB502210A4800F04BFE0A2000F056FEC8
:10084000622000F053FE0221684600F041FE0821BC
:1008500002A800F03DFE0221024800F039FE1FBD53
:100860002C0000202E0000201FB504462046FFF774
:1008700085FD00B11FBD0221114800F029FE0A20AC
:1008800000F034FE602000F031FE0221204600F02E
:100890001FFE022101A800F01BFE022102A800F0A9
:1008A00017FE022103A800F013FE022106A800F0A3
:1008B0000FFE0221034800F00BFE00BFDAE7000044
:1008C0002C0000202E00002007B502210A4800F06D
:1008D000FFFD062000F00AFE672000F007FE02215F
:1008E000684600F0F5FD042102A800F0F1FD0221A8
:1008F000024800F0EDFD0EBD2C0000202E0000206F
:1009000007B502210A4800F0E3FD062000F0EEFDE5
:10091000662000F0EBFD0221684600F0D9FD0421BD
:1009200002A800F0D5FD0221024800F0D1FD0EBD65
:100930002C0000202E0000200FB410B502210C481E
:1009400000F0C6FD1A2000F0D1FD612000F0CEFDC0
:10095000022102A800F0BCFD182104A800F0B8FD97
:100960000221044800F0B4FD10BC5DF814FB000047
:100970002C0000202E00002000BFFEE77047000082
:1009800070B5002100230F22C47804B3154C2468ED
:1009900004F4E064C4F5E064210AC1F10403CA4030
:1009A000447804FA03F184781440214309010E4C81
:1009B0000678A155047804F01F050124AC400578A1
:1009C0006D11AD0005F1E025C5F8004109E004789E
:1009D00004F01F050124AC40044D0678761145F85B
:1009E000264070BD0CED00E000E400E080E100E096
:1009F00002490143024A1160704700000000FA05F5
:100A00000CED00E07047000029B1064A92690243EC
:100A1000044B9A6104E0034A92698243014B9A6154
:100A2000704700000010024030B500210022002471
:100A300000232D4D6D6805F00C0121B1042905D06E
:100A4000082923D105E0294D056022E0274D0560E6
:100A50001FE0254D6D6805F47012234D6D6805F497
:100A60008034022505EB92421CB9214D55430560A7
:100A70000BE01D4D6D6805F400351DB11C4D55434F
:100A8000056002E0194D5543056002E0174D056011
:100A900000BF00BF144D6D6805F0F0010909154D48
:100AA0006B5C0568DD4045600F4D6D6805F4E061E5
:100AB000090A104D6B5C4568DD4085600A4D6D6824
:100AC00005F46051C90A0B4D6B5C4568DD40C5609B
:100AD000054D6D6805F44041890B074D6B5CC56899
:100AE000B5FBF3F5056130BD0010024000127A003D
:100AF00000093D0014000020240000207047000081
:100B00001FB504462046FFF757FC00B11FBD022168
:100B1000114800F0DDFC0A2000F0E8FC502000F055
:100B2000E5FC0221204600F0D3FC022101A800F0E0
:100B3000CFFC022102A800F0CBFC022103A800F0A8
:100B4000C7FC022106A800F0C3FC0221034800F004
:100B5000BFFC00BFDAE700002C0000202E000020C0
:100B60001FB502210A4800F0B3FC062000F0BEFCCD
:100B7000542000F0BBFC0221684600F0A9FC0421CF
:100B800006A800F0A5FC0221024800F0A1FC1FBD50
:100B90002C0000202E0000201FB502210A4800F082
:100BA00097FC062000F0A2FC532000F09FFC0221DD
:100BB000684600F08DFC042106A800F089FC0221A3
:100BC000024800F085FC1FBD2C0000202E000020F4
:100BD00010B500F001F810BD0CB500200190009098
:100BE0003348006840F480303149086000BF304825
:100BF000006800F4003000900198401C01900098BB
:100C000018B90198B0F5A06FF1D12948006800F437
:100C1000003010B10120009001E000200090009809
:100C2000012843D12348006840F0100021490860A2
:100C30000846006820F0030008600846006840F09D
:100C4000020008601A484068194948600846406830
:100C500048600846406840F4806048600846406844
:100C600020F47C1048600846406840F4E810486072
:100C70000846006840F08070086000BF0C480068BB
:100C800000F000700028F9D00948406820F0030007
:100C9000074948600846406840F00200486000BFCD
:100CA0000348406800F00C000828F9D10CBD000092
:100CB000001002400020024000B585B000F05AFD4F
:100CC0004FF0FF3000F09AFD01224FF416614FF40F
:100CD0007A7000F0ABFD6420C8230022322100901E
:100CE0007C4800F0F5F910227A4803C800F07EFA3B
:100CF0006FF07F42774803C800F01AFA4FF49670FD
:100D00004FF46173642232210090734800F0E0F9DF
:100D1000724AD2E902101269CDE9010200916F48CE
:100D20000CC86D4803C800F01FFA6DA26A4803C8DA
:100D300000F03AFA96204FF461734FF4C8723221F2
:100D400000906948FFF720FC68A0674B04901033BF
:100D50000FCB8DE80F0064480FC8FFF745FC9620C5
:100D60004FF4827340F22622322100906148FFF74F
:100D70007FFB61A25F4803C8FFF7C6FB28225D48DE
:100D800003C8FFF7E3FB9620034640F226224FF408
:100D9000487100905A4800F0CBF801200090584864
:100DA0000FC800F0F5F864204FF461734FF42F7210
:100DB000322100905348FFF7A3FE5348009051485A
:100DC0000FC8FFF7CDFE322000904E480FC8FFF746
:100DD000E3FE64204FF46173C200322100904B485F
:100DE000FFF78EFE3220009048480FC8FFF7D4FE70
:100DF0004FF4C8704FF461731A4632210090444892
:100E0000FFF732FD434BD3E90221D3E90403CDE9D7
:100E10000203CDE900213F480CC83D4803C8FFF755
:100E20008BFD3D4A3A4803C8FFF76AFD4FF4C8708E
:100E30004FF461731A46322100903848FFF714FDD1
:100E4000344AD2E90313906852698DE80B0003928B
:100E500030480CC8314803C8FFF76EFD2A4A2F48B6
:100E600003C8FFF74DFD2E4A2C4803C8FFF72CFDA1
:100E70004FF4C870034640F21452322100902948C2
:100E8000FFF764FC01200190264800690090254886
:100E90000FC8FFF7ADFC244801902248006900907C
:100EA00020480FC8FFF784FC4FF4C870034640F297
:100EB000145240F2262100901C48FFF747FC1A48C4
:100EC00001901A480069009018480FC8FFF770FC9D
:100ED00005B000BD6000002058000020A41B0008E1
:100EE000CEC4B1BEBFF2000098040020CAE4C8EB33
:100EF000BFF2000068000020B0B4BCFC000000009D
:100F0000B8040020C80400200000FFFFD80400201F
:100F100070000020B81B0008FF0000FF78000020D0
:100F2000444444FFE8040020555555FFFC040020CC
:100F30001FB504462046FFF75DFA00B11FBD022130
:100F4000114800F0C5FA0A2000F0D0FA402000F065
:100F5000CDFA0221204600F0BBFA022101A800F0E0
:100F6000B7FA022102A800F0B3FA022103A800F0A8
:100F7000AFFA022106A800F0ABFA0221034800F004
:100F8000A7FA00BFDAE700002C0000202E000020A6
:100F90001FB502210A4800F09BFA062000F0A6FACD
:100FA000422000F0A3FA0221684600F091FA0421E1
:100FB00006A800F08DFA0221024800F089FA1FBD50
:100FC0002C0000202E000020042808D14FF0E02142
:100FD000096941F004014FF0E022116107E04FF090
:100FE000E021096921F004014FF0E022116170470E
:100FF0007047000010B51348006840F00100114927
:10100000086008464068104908400E494860084694
:1010100000680E4908400B4908600846006820F443
:10102000802008600846406820F4FE0048604FF4C5
:101030001F008860FFF7CCFD4FF000600449086096
:1010400010BD0000001002400000FFF8FFFFF6FE98
:1010500008ED00E037B5144602210A4800F038FADE
:10106000002000F043FA132000F040FA0221684605
:1010700000F02EFA204600F043FA0221024800F068
:1010800027FA3EBD2C0000202E00002037B5144664
:1010900002210D4800F01CFA002000F027FA13206E
:1010A00000F024FA0221684600F012FA03E02078EA
:1010B00000F01CFA641C20780028F8D102210348B3
:1010C00000F006FA3EBD00002C0000202E0000209B
:1010D0001FB504462046FFF7ABF900B11FBD022142
:1010E000114800F0F5F90A2000F000FA102000F095
:1010F000FDF90221204600F0EBF9022101A800F0E1
:10110000E7F9022102A800F0E3F9022103A800F0A8
:10111000DFF9022106A800F0DBF90221034800F004
:10112000D7F900BFDAE700002C0000202E000020D5
:1011300007B502210A4800F0CBF9062000F0D6F9E5
:10114000172000F0D3F90221684600F0C1F904210C
:1011500002A800F0BDF90221024800F0B9F90EBD65
:101160002C0000202E0000200FB410B502210C48E6
:1011700000F0AEF9162000F0B9F9112000F0B6F930
:10118000022102A800F0A4F9142104A800F0A0F99B
:101190000221044800F09CF910BC5DF814FB00002B
:1011A0002C0000202E00002037B5144602210D48E7
:1011B00000F08EF9002000F099F9122000F096F965
:1011C0000421684600F084F903E0207800F08EF9ED
:1011D000641C20780028F8D10221034800F078F937
:1011E0003EBD00002C0000202E00002007B502218B
:1011F0000A4800F06DF9062000F078F9162000F09A
:1012000075F90221684600F063F9042102A800F094
:101210005FF90221024800F05BF90EBD2C000020AE
:101220002E0000202DE9F041244806882448048837
:10123000A64202D10020BDE8F081A64201DD04F5FE
:10124000806435462BE02846E91705EB9151891259
:10125000A5EB81211B4A575C0A2F10D11A48008840
:1012600000281BDD002118480088401E174A115431
:10127000104600F05FF80020134908800EE0134884
:1012800011490988475410480088401C0E490880BD
:1012900008460088182801DB002008806D1CA54244
:1012A000D1DDA4EB06082046E11704EB9151891229
:1012B000A4EB812401490C804046BCE75200002089
:1012C00054000020980000205000002080000020E2
:1012D0000A2803D113490988134A11801349114A76
:1012E000128888540F490988491C0E4A11801146FA
:1012F0000988B1F5806F01DB002111800949098857
:101300000B4A128891420BD106490988491C084AA8
:10131000118011460988B1F5806F01DB0021118031
:101320007047000056000020540000209800002064
:10133000520000202DE9F05F04464FF0000800271E
:101340005E48D0F800905E48D0F800A05D48D0F824
:1013500000B05D4806685D4805682078412804DDD6
:1013600020787A2801DA94F80080641C0CE0207858
:1013700038B120780A2101FB0700A0F13007641C76
:1013800002E00220BDE8F09F20783A28EFD1641CEB
:10139000B8F1620F13D10EE0B9F80000B84208D1DD
:1013A0002078303889F80200012089F803000020F5
:1013B000E8E7D9F80490B9F1000FEDD17CE0B8F17D
:1013C000650F1BD116E0BAF80000B84210D12046D4
:1013D000FEF7CAFE182809D221460AF10200FEF7DC
:1013E000CAFE01208AF81A000020CBE70420C9E7D2
:1013F000DAF81CA0BAF1000FE5D15DE0B8F1730F87
:1014000013D10EE0BBF80000B84208D12078303884
:10141000CBF8040001208BF808000020B2E7DBF8CD
:101420000CB0BBF1000FEDD146E0B8F1530F19D16C
:1014300015E03088B84211D10020706007E02078B4
:1014400030380A22716802FB01007060641C207849
:101450000028F4D101203072002093E7F668002EB6
:10146000E7D129E0B8F16A0F26D123E02888B842F5
:101470001FD100206860A86007E0207830380A2279
:10148000696802FB01006860641C20782C28F4D194
:10149000641C07E0207830380A22A96802FB0100AA
:1014A000A860641C20780028F4D101202873002053
:1014B00068E72D69002DD9D1032063E738000020AB
:1014C0003C00002040000020440000204C00002090
:1014D00070B504460D4603E0207800F007F8641C60
:1014E000281EA5F10105F7D170BD000010B5044616
:1014F0002146024800F02DF910BD000000380140DF
:101500002DE9F04707460A254FF00009384600F05C
:10151000E7FA8046002F02DA2D20FFF7E7FF0124CB
:1015200021E0281B41B20A2000F0E1FAB8FBF0F0FC
:101530000A21B0FBF1F201FB1206B9F1000F0AD14A
:10154000AC4208DC2EB9AC4202D13020FFF7CEFF0E
:1015500007E04FF0010906F13001C8B2FFF7C6FFFE
:1015600000BF601CC4B2AC42DBDDBDE8F087000008
:1015700010B540F22551064800F026F830B1044875
:1015800000F0DEF8C4B22046FFF7A2FE10BD000056
:101590000038014010B540F22551044800F014F81D
:1015A00018B1024800F0CCF8C4B210BD00440040AD
:1015B00021B1828942F40052828104E082894DF691
:1015C000FF731A408281704770B5024600240023E1
:1015D0000025002040F66A16B14200D100BFC1F3D9
:1015E000421501F01F03012606FA03F3012D02D173
:1015F0009689334006E0022D02D1168A334001E07D
:10160000968A33400C12012606FA04F416883440F8
:1016100013B10CB1012000E0002070BDF0B503460D
:10162000002400260025002040F66A17B94200D1A8
:1016300000BF1846C1F3421401F01F06012707FA44
:1016400006F5012C01D10C3004E0022C01D1103040
:1016500000E014301AB107682F43076002E0076802
:10166000AF430760F0BD00002DE9F04786B00546A6
:101670000E460024A24600BFA1460027B08900B153
:1016800000BF2F462C8A4CF6FF700440F0880443BC
:101690002C82AC894EF6F3100440B088318908439F
:1016A000718908430443AC81AC8A4FF6FF40044083
:1016B000B0890443AC8201A8FFF7B6F91F488742FE
:1016C00002D1DDF810A001E0DDF80CA0A88900F43B
:1016D000004040B10AEBCA0000EB0A103168490033
:1016E000B0FBF1F807E00AEBCA0000EB0A10316822
:1016F0008900B0FBF1F86420B8FBF0F00401200988
:10170000642101FB1089A88900F4004040B1322017
:1017100000EBC900B0FBF1F000F00700044308E063
:10172000322000EB09106421B0FBF1F000F00F0053
:1017300004432C8106B0BDE8F0870000003801406A
:1017400001468888C0F308007047C1F30802828010
:10175000704770B504460D4629462046FFF7F5FF51
:1017600000BF208800F040000028FAD070BD00BF04
:10177000FEE7000010B5002405E002211548FFF740
:10178000A7FE601CC4B2142CF7DB02211248FFF73D
:101790009FFE0120FFF7AAFE0020FFF7A7FE002012
:1017A000FFF7A4FE02210B48FFF792FE00200B4931
:1017B00008600B4908600B4908600B4908600B4939
:1017C00008600B4908600B49086001200A4908803D
:1017D00010BD00002E0000202C000020340000204E
:1017E000380000203C000020400000204400002081
:1017F000480000204C0000203000002001B50221EC
:101800000848FFF765FE0420FFF770FE0120FFF790
:101810006DFE04216846FFF75BFE02210248FFF7D8
:1018200057FE08BD2C0000202E00002007B5022125
:101830000C48FFF74DFE0520FFF758FE0220FFF78A
:1018400055FE02216846FFF743FE022101A8FFF77B
:101850003FFE012102A8FFF73BFE02210248FFF7ED
:1018600037FE0EBD2C0000202E00002002E008C82C
:10187000121F08C1002AFAD170477047002001E00A
:1018800001C1121F002AFBD17047000010B56FF094
:101890000400FFF799FB0A4800680A49B0FBF1F021
:1018A000094908700846007800EB4001C1EBC01000
:1018B0004FF6FF7101EAC0000449088010BD000026
:1018C0000000002000127A00280000202A000020DA
:1018D0000146114A12884A434FF0E0235A61002220
:1018E0009A611A46126942F001021A6100BF4FF074
:1018F000E022106900F001021AB100F48032002ADF
:10190000F5D04FF0E022126922F001024FF0E023FF
:101910001A6100229A6170472A00002008B54FF42E
:10192000A060FFF765F8FFF7B1FF4FF4E13000F07A
:10193000E9F8FFF7C1F995E0FFF774FC4A48C07871
:10194000D0B100204849C8700846807850B1474A55
:10195000084603C8FEF7BCFD45A2484803C8FFF788
:1019600023FC09E0464A404803C8FEF7B1FD45A202
:10197000424803C8FFF718FC4548807E68B1002044
:101980004349887643A23D4803C8FFF70DFC404A0F
:10199000921C3A4803C8FFF779FB4148007A80B1AE
:1019A00000203F4908720846406828B13DA23348EC
:1019B00003C8FFF7F9FB04E03DA2304803C8FFF776
:1019C000F3FB3E48007AA0B100203C4908723CA2DB
:1019D0002A4803C8FFF7E8FB38484268274803C88D
:1019E000FFF738FB35484068009038480FC8FFF7CC
:1019F000D3F83748007BB8B10020354908734868F0
:101A0000FEF7C2FB044622460B46324803C8FEF7E7
:101A10000FFF2F498868FEF7B7FB044622460B46A6
:101A20002D4803C8FEF704FF2C48007BB8B1002006
:101A30002A4908734868FEF7A7FB044622460B466E
:101A4000244803C8FEF7F4FE24498868FEF79CFB8F
:101A5000044622460B46204803C8FEF7E9FE142040
:101A6000FFF736FF68E7000068000020FF0000FF76
:101A7000B0B4BCFC3AB0B4CFC200000058000020A3
:101A8000FF8064FFB0B4BCFC3ACCA7C6F0000000F5
:101A900098040020CAE4C8EBBFF2A3BA000000001B
:101AA000B8040020BFAAB9D83AB4F2BFAA00000017
:101AB000BFAAB9D83AB9D8B1D5000000C8040020EF
:101AC000CDCFB6AFCCF5A3BA00000000D8040020FB
:101AD000E80400207000002078000020FC040020B2
:101AE0000146002901DB084670474842FCE710B573
:101AF0000246012000E050430B1EA1F1010461B237
:101B0000F9D110BD10B586B00446012144F204009D
:101B1000FEF77AFF4FF40070ADF8140003208DF843
:101B2000160018208DF8170005A91C48FEF780FD47
:101B30004FF48060ADF8140004208DF8170005A95B
:101B40001648FEF775FD25208DF8000003208DF85E
:101B500001008DF8020001208DF803006846FEF7B1
:101B60000FFF01940020ADF80800ADF80A00ADF8B1
:101B70000C00ADF810000C20ADF80E0001A90848CB
:101B8000FFF772FD012240F225510548FFF746FD9F
:101B900001210348FFF70CFD06B010BD000801400D
:101BA000003801403C000000000000FF1100000070
:101BB0000000000000000000320000000000C8C269
:101BC00000009643FF0000FF888888FF00000000A7
:101BD000F01B000800000020800000006C180008C6
:101BE000701C000880000020900800007C1800088D
:101BF00000A24A04000000000000000001020304EB
:101C000006070809000000000102030401020304A2
:101C10000607080902040608000000000109080779
:101C200001000000000000000000000000000000B3
:101C300000000000000000000000000000000000A4
:101C40000000000000000000000000000000000094
:101C50000000000000000000000000000000000084
:101C60000000000000000000000000000000000074
:0400000508000131BD
:00000001FF
