:020000040800F2
:100000004006002045010008110B0008CF0A000837
:100010000D0B0008AF090008CB110008000000001C
:10002000000000000000000000000000B10D00080A
:10003000B309000800000000BB0C0008C50E000852
:100040005F0100085F0100085F0100085F01000810
:100050005F0100085F0100085F0100085F01000800
:100060005F0100085F0100085F0100085F010008F0
:100070005F0100085F0100085F0100085F010008E0
:100080005F0100085F0100085F0100085F010008D0
:100090005F0100085F0100085F0100085F010008C0
:1000A0005F0100085F0100085F0100085F010008B0
:1000B0005F0100085F0100085F0100085F010008A0
:1000C0005F0100085F0100085F0100085F01000890
:1000D0005F010008290F0008A90F00085F01000850
:1000E0005F0100085F0100085F0100085F01000870
:1000F0005F0100085F0100085F0100085F01000860
:100100005F0100085F0100085F0100085F0100084F
:100110005F0100085F0100085F0100085F0100083F
:100120005F0100085F0100085F0100085F0100082F
:10013000DFF80CD000F0C8FB00480047911C000815
:10014000400600200648804706480047FEE7FEE7D5
:10015000FEE7FEE7FEE7FEE7FEE7FEE7FEE7FEE777
:10016000C90E00083101000830B505462A460B4685
:1001700012F8010B13F8014B08B1A042F8D01CB1E2
:10018000002802D06D1CF1E7284630BDF0B480EAAB
:100190000102D40F4200B2EB410F02D202460846E0
:1001A00011464A0042D0C30DDDB2C1F3C752AD1AA9
:1001B000202D35DAC1F3160141F4000204B1524298
:1001C000C5F1200602FA06F12A411044B3EBD05FD4
:1001D00023D0C4B1012DA0EBC35009DCF0BC4FF01B
:1001E000004202EAC352DBB200F5000000F02BBA75
:1001F000400000F1807000EBC350A0F1807040EA35
:10020000D170490009E0490841EAC071A0EBC35030
:1002100000F50000400800EBC350F0BC00F00ABA43
:100220006142012202EB4101001BF6E7F0BC70477E
:1002300081F00041AAE780F00040A7E780EA0102D0
:1002400010B502F00043400022D04A001FD0010E3A
:1002500001EB1261C0F35600C2F3560240F40000F5
:1002600042F40002A0FB022000047F39140400D0F5
:10027000401C50EA124001D44000491EC2B20C0694
:1002800004EBD010401C4008802A02D003E000207C
:1002900010BD20F00100002900DA0020184310BD35
:1002A0002DE9FE4F804681EA0300C00F0C46009006
:1002B00021F0004123F00045B8EB0200A94105D22E
:1002C0004046214690461C460B46024623F000401D
:1002D000104347D0270DC7F30A00C3F30A51029019
:1002E000401A019040286BDAC3F3130040F4801BDE
:1002F0000098924620B10023D2EB030A63EB0B0B6C
:1003000001985946C0F14002504600F072F9064685
:100310000D4650465946019A00F07AF910EB080054
:100320006141002487EA115284EAE7731A4340D0FE
:10033000009A62B3019A012A4FEA075215DC001BAA
:1003400061EB02014FF0004202EA0752CDE90042A0
:10035000001C41F5801132462B4600F0B1F903B084
:10036000BDE8F08F40462146F9E7001B61EB020132
:10037000001C41F5801300185B412018A2F50017FE
:1003800047EB030140EAD570B6196D4111E06D08E5
:100390004FEA360645EAC0754FEA0752001B61EB8B
:1003A0000201001C41F5801149084FEA3000001994
:1003B000514132462B4603B0BDE8F04F00F071B911
:1003C0000098012240000023D0EB020263EBE073AF
:1003D000009821464FEAE074B8EB000061EB04019D
:1003E000E9E783F000435BE781F0004158E72DE93E
:1003F000FE4F81EA030404F0004421F00041009420
:100400004FF0000B23F0004350EA01045ED052EAA3
:1004100003045BD0C3F30A54C1F30A552C44A4F27D
:10042000F3340194A0FB0254C1F3130141F4801191
:10043000C3F3130343F4801301FB024400FB034E98
:10044000840A970A44EA815447EA8357A4FB076861
:1004500002958D0A05FB07854FEA932C04FB0C548B
:100460002705029D4FEA065847EA1637B5EB0805FF
:100470006EEB070C870E920E47EA811742EA831251
:10048000A7FB0201B6EB0B0164EB00042B0D43EA62
:100490000C335E1844EB1C50DA465146E7FB020170
:1004A000C5F313044FEA0B3343EA14534FEA043203
:1004B000019C43EA0603A4F10C040294009CCDE9DC
:1004C00000B400F0FDF803B0BDE8F08F0020014655
:1004D000F9E7C10F80EAE0700844CA0796230021BB
:1004E00000F0B1B80EB5C10F80EAE0700844CA0749
:1004F000002140F233438DE80E000A460B4600F01F
:10050000DFF803B000BD00F0004230F000400AD038
:10051000C10D01F56071C0F3160042EA0151C20835
:1005200040071143704700200146704701F0004327
:1005300030B421F0004150EA010206D00A0DA2F5C4
:100540006072C1F31301002A02DC30BC0020704746
:10055000440F44EAC104C100E01830BC00EBC250B3
:1005600000F068B830B50B46014600202022012477
:1005700009E021FA02F59D4205D303FA02F5491B71
:1005800004FA02F52844151EA2F10102F1DC30BD87
:100590002DE9F05F0546002092469B4688460646B8
:1005A000814640241BE0284641464746224600F04B
:1005B0009DF953465A46C01A914110D31146184628
:1005C000224600F016F82D1A67EB01084F46224626
:1005D0000120002100F00DF817EB00094E41201E0C
:1005E000A4F10104DFDC484631462A464346BDE813
:1005F000F09F202A04DB203A00FA02F10020704725
:100600009140C2F1200320FA03F319439040704750
:10061000202A06DBCB17203A41FA02F043EAE073C6
:1006200006E041FA02F3D040C2F1200291400843B3
:10063000194670470029A8BF7047401C490008BFF1
:1006400020F00100704710B4B0FA80FC00FA0CF002
:1006500050EA010404BF10BC704749B1CCF120043A
:1006600021FA04F411FA0CF118BF012121430843C7
:10067000A3EB0C01CB1D4FEA00614FEA102042BFF3
:10068000002010BC704700EBC35010440029A4BFE9
:1006900010BC7047401C490008BF20F0010010BC8E
:1006A000704710B5141E73F1000408DA401C41F1C4
:1006B000000192185B411A4301D120F0010010BDE6
:1006C0002DE9F04D92469B4611B1B1FA81F202E05C
:1006D000B0FA80F220329046FFF78BFF04460F46B7
:1006E00040EA0A0041EA0B0153465A46084313D038
:1006F000114653EA010019D0C8F14002504600F0FB
:10070000F5F805460E46504659464246FFF771FF3A
:10071000084305D0012004E020463946BDE8F08DAD
:100720000020054346EAE0762C4337430A986305E8
:10073000E40AA0EB08000022FD0A44EA47540A300C
:1007400002D500200146E9E7010510196941DDE9FC
:10075000084500196941BDE8F04DA2E72DE9F04DCB
:1007600081EA030404F0004B21F0004514464FF0E9
:10077000000A23F0004150EA050220D054EA0102A9
:100780001DD0C5F30A570246C5F31303C1F3130086
:10079000C1F30A5640F4801543F48013A7EB060812
:1007A000101BD64608F2FD3873EB050002D308F1A2
:1007B000010801E092185B41B8F1000F03DA002054
:1007C0000146BDE8F08D00204FF4801106468446B6
:1007D0000EE0171B73EB050705D3121B63EB050334
:1007E00006434CEA010C49084FEA300092185B417D
:1007F00050EA0107EDD152EA030012D082EA040068
:1008000083EA0501084305D0101BAB4106D2012243
:10081000002306E000224FF0004302E06FF00102E7
:1008200053101AEB06004CEB085110EB0A0041EB99
:100830000B01BDE8F04DFFF734BF70B521F0004368
:1008400003430CD0C1F30A550024D5EB040564EB37
:100850000403D617AD1AB34102DB0020014670BD78
:10086000201841EB025170BDC1F30A52C1F31301CC
:1008700040F2FF3341F480119A4202DA002001462F
:10088000704740F233439A42A2F2334202DC5242B2
:1008900000F02CB8FFF7ADBE30B5041E71F10004B6
:1008A00004DB4FF00044404264EB0101141E73F17D
:1008B000000405DB1C464FF00043524263EB040387
:1008C000994208BF904230BD064C074D06E0E068F3
:1008D00040F0010394E8070098471034AC42F6D387
:1008E000FFF72AFCE028000800290008202A04DB82
:1008F000203A21FA02F00021704721FA02F3D04099
:10090000C2F1200291400843194670472DE9F04D8D
:1009100000231A461B1A8A4103DB00200146BDE86A
:10092000F08DC1F30A52C1F3130141F480154FF069
:10093000000BD10702D100186D41521E002704465A
:1009400040F2FF11384601EB620A3E4680460246FD
:1009500000204FF48011FFF7C9FFC2197141BB1885
:1009600046EB0100B4EB030C75EB000C04D3E41A66
:1009700065EB000517460E46241908F101006D418C
:1009800080463428E3DDF91946EB0600091BA8412F
:1009900003D24FF0FF32134601E0002213461BEB57
:1009A000070046EB0A51BDE8F04DFFF77ABE00BFE5
:1009B000FEE770472DE9F0410246002500260020A1
:1009C00000230024002791F803C00CF00F0591F8D4
:1009D00003C00CF0100CBCF1000F03D091F802C062
:1009E0004CEA050591F800C0BCF1000F31D0146845
:1009F00000202BE04FF0010C0CFA00F3B1F800C01E
:100A00000CEA03069E4220D183004FF00F0C0CFA33
:100A100003F7BC4305FA03FC4CEA040491F803C055
:100A2000BCF1280F06D14FF0010C0CFA00FCC2F803
:100A300014C00AE091F803C0BCF1480F05D14FF093
:100A4000010C0CFA00FCC2F810C0401C0828D1D3DD
:100A50001460B1F800C0BCF1FF0F34DD5468002011
:100A60002EE000F1080C4FF0010808FA0CF3B1F881
:100A700000C00CEA03069E4221D183004FF00F0C08
:100A80000CFA03F7BC4305FA03FC4CEA040491F8A2
:100A900003C0BCF1280F05D100F1080C08FA0CF8CE
:100AA000C2F8148091F803C0BCF1480F07D100F1DF
:100AB000080C4FF0010808FA0CF8C2F81080401C2E
:100AC0000828CED35460BDE8F0810161704700BFB3
:100AD000FEE7000008B50121102000F0EFF84FF408
:100AE0000050ADF8000010208DF8030003208DF8B1
:100AF000020069460448FFF75DFF4FF400510248C9
:100B0000FFF7E3FF08BD00000010014000BFFEE753
:100B10007047000070B5002100230F22C47804B391
:100B2000154C246804F4E064C4F5E064210AC1F1C2
:100B30000403CA40447804FA03F184781440214342
:100B400009010E4C0678A155047804F01F05012414
:100B5000AC4005786D11AD0005F1E025C5F8004108
:100B600009E0047804F01F050124AC40044D067828
:100B7000761145F8264070BD0CED00E000E400E081
:100B800080E100E002490143024A11607047000021
:100B90000000FA050CED00E02DE9F04F8BB00446A3
:100BA00089464FF0010B00250026AA4662E0207816
:100BB0002C280DD15846FFF78CFC07463146FFF72D
:100BC0003DFB0646C9F8006000200BB0BDE8F08F81
:100BD00020782D2802D14FF0FF3B48E020782E28C6
:100BE00002D14FF0FF3542E0207830283DDB2078FD
:100BF00039283ADC7DB92178A1F13000FFF769FC92
:100C000007461F493046FFF719FB80463946FFF774
:100C1000BDFA06462BE02846FFF764FC02460B4669
:100C2000CDE900010020174901F0AEF807468846DB
:100C30002178A1F13000FFF755FC3A464346CDE953
:100C40000201FFF7D4FBCDE906013046FFF75BFC5C
:100C5000CDE90401DDE90623FFF722FBCDE9080118
:100C6000FFF764FC06466D1E01E00120ADE7641C41
:100C70000AF1010ABAF1100F99DB0220A5E7000082
:100C80000000204100002440F8B504460F461646F7
:100C900039462046FFF768FA04460CB90120F8BD32
:100CA000241D69462046FFF777FF05461DB90098C9
:100CB00030600020F3E70220F1E7704729B1064ACF
:100CC00092690243044B9A6104E0034A92698243A9
:100CD000014B9A61704700000010024030B50021BE
:100CE0000022002400232D4D6D6805F00C0121B178
:100CF000042905D0082923D105E0294D056022E00B
:100D0000274D05601FE0254D6D6805F47012234DD9
:100D10006D6805F48034022505EB92421CB9214D23
:100D2000554305600BE01D4D6D6805F400351DB1A0
:100D30001C4D5543056002E0194D5543056002E026
:100D4000174D056000BF00BF144D6D6805F0F00140
:100D50000909154D6B5C0568DD4045600F4D6D68F8
:100D600005F4E061090A104D6B5C4568DD40856063
:100D70000A4D6D6805F46051C90A0B4D6B5C4568FE
:100D8000DD40C560054D6D6805F44041890B074D98
:100D90006B5CC568B5FBF3F5056130BD0010024022
:100DA00000127A0000093D001400002024000020F9
:100DB000704710B500F002F810BD00000CB500201F
:100DC000019000903348006840F480303149086059
:100DD00000BF3048006800F4003000900198401CCB
:100DE0000190009818B90198B0F5A06FF1D1294889
:100DF000006800F4003010B10120009001E00020F4
:100E000000900098012843D12348006840F010006A
:100E1000214908600846006820F003000860084681
:100E2000006840F0020008601A48406819494860AC
:100E30000846406848600846406840F48060486062
:100E40000846406820F47C1048600846406840F43A
:100E5000E81048600846006840F08070086000BFF5
:100E60000C48006800F000700028F9D0094840687C
:100E700020F00300074948600846406840F002003F
:100E8000486000BF0348406800F00C000828F9D112
:100E90000CBD00000010024000200240042808D1D0
:100EA0004FF0E021096941F004014FF0E0221161A7
:100EB00007E04FF0E021096921F004014FF0E02242
:100EC000116170477047000010B51348006840F08A
:100ED00001001149086008464068104908400E4961
:100EE0004860084600680E4908400B4908600846FB
:100EF000006820F4802008600846406820F4FE0066
:100F000048604FF41F008860FFF753FF4FF0006008
:100F10000449086010BD0000001002400000FFF806
:100F2000FFFFF6FE08ED00E010B540F225511A482B
:100F300000F08AF878B3184800F042F9C4B21748B4
:100F40000088022827D01548008801280BD10A2CD8
:100F500005D0002011490880114908801BE00220BB
:100F60000E49088017E00D2C03D101200B490880A1
:100F700011E00C480A490988445409480088401C7B
:100F80000749088008460088FF2804DB0020034941
:100F900008800349088010BD00380140300000205F
:100FA000340000203C00002010B540F225511D48BF
:100FB00000F04AF810B31B4800F002F9C4B21A4816
:100FC000008800F40040C8B91748008800F4804049
:100FD00060B10A2C03D000201349088020E0124899
:100FE000008840F400401049088019E00D2C06D11B
:100FF0000D48008840F480400B49088010E00A4802
:101000000088C0F30D0009490C5407480088401CB3
:101010000549088008460088FF2801DD0020088077
:1010200010BD000000440040320000203C010020C0
:1010300021B1828942F40052828104E082894DF616
:10104000FF731A408281704770B502460024002366
:101050000025002040F66A16B14200D100BFC1F35E
:10106000421501F01F03012606FA03F3012D02D1F8
:101070009689334006E0022D02D1168A334001E002
:10108000968A33400C12012606FA04F4168834407E
:1010900013B10CB1012000E0002070BDF0B5034693
:1010A000002400260025002040F66A17B94200D12E
:1010B00000BF1846C1F3421401F01F06012707FACA
:1010C00006F5012C01D10C3004E0022C01D11030C6
:1010D00000E014301AB107682F43076002E0076888
:1010E000AF430760F0BD00002DE9F04786B005462C
:1010F0000E460024A24600BFA1460027B08900B1D9
:1011000000BF2F462C8A4CF6FF700440F088044341
:101110002C82AC894EF6F3100440B0883189084324
:10112000718908430443AC81AC8A4FF6FF40044008
:10113000B0890443AC8201A8FFF7D0FD1F48874265
:1011400002D1DDF810A001E0DDF80CA0A88900F4C0
:10115000004040B10AEBCA0000EB0A1031684900B8
:10116000B0FBF1F807E00AEBCA0000EB0A103168A7
:101170008900B0FBF1F86420B8FBF0F0040120090D
:10118000642101FB1089A88900F4004040B132209D
:1011900000EBC900B0FBF1F000F00700044308E0E9
:1011A000322000EB09106421B0FBF1F000F00F00D9
:1011B00004432C8106B0BDE8F087000000380140F0
:1011C00001468888C0F30800704700BFFEE70000B2
:1011D0000FB4054B10B503A9044A029800F06AF950
:1011E00010BC5DF814FB0000751C00082C000020EA
:1011F000490050EAC12018BF04204A0D18BF40F032
:10120000010040F2FF72B2EB515F08BF40F00200F4
:10121000012808BF052070472DE9F0414F1E00EB63
:10122000C7010446D1E9000115461E4637F0060203
:101230000DD02A463346FFF7DAF87F1E04EBC703CA
:10124000D3E90023FFF72CF837F00602F1D1022F83
:1012500025D0042F13D0062F18BFBDE8F0812A46F1
:101260003346FFF7C4F8D4E90A23FFF719F82A46F2
:101270003346FFF7BCF8D4E90823FFF711F82A46F4
:101280003346FFF7B4F8D4E90623FFF709F82A46F6
:101290003346FFF7ACF8D4E90423FFF701F82A46F8
:1012A0003346FFF7A4F8D4E90223FEF7F9FF2A46F4
:1012B0003346FFF79CF8D4E90023BDE8F041FEF780
:1012C000EFBF00000022134610460149FFF746BA5F
:1012D0000000F03FFEF7E4BF00221346104611461F
:1012E000FFF73CBA40F2013200204FF0E041FFF737
:1012F000A4BA0000024A00201107FFF79EBA0000BE
:1013000001FDFFFF02E008C8121F08C1002AFAD140
:1013100070477047002001E001C1121F002AFBD175
:101320007047000001490860704700003800002045
:101330002DE9FF5F82B00021DDE90430020DDDF808
:1013400040B0034318D044F61050A2F2FF3242439B
:101350001514119801281FD0A5EB0B00401C5FEA63
:10136000000A4FF000064E4FDFF83891B046504665
:1013700015D5CAF1000413E0119801244AA30128ED
:1013800001D16FEA0B010298119AC0E90031C0E95E
:10139000024206B0BDE8F09FCBF10000DFE7044653
:1013A0000021404A491842EB0450CDE9001012E0F8
:1013B000E00707D032463B4640464946FFF717F85C
:1013C0008046894632463B4610461946FFF70FF8DD
:1013D00006460F466410002CEAD1DDE90401DDE980
:1013E0000023BAF1000F06DAFFF701F842464B4638
:1013F000FEF7FDFF05E0FFF7B1F942464B46FFF768
:10140000ADF904460E460022284BFFF745FA03D8F3
:101410004FF0FF30014607E00022254B20463146C1
:10142000FEF73EFFFFF720FA102409E0002C0ADB4C
:101430000A220023FFF7ACF8039B30321A55641ED2
:1014400050EA0102F2D1641C039AC4F1110314445E
:10145000119A012A03D0012208430DD10AE0084362
:1014600004D000204FF0110B119072E7A3EB0B0595
:101470006D1E0DE05B4504DD4FF0000205F1010536
:1014800004E003DA4FF00002A5F10105002AECD0D8
:1014900002981199C0E90231C0E9004579E70000DE
:1014A000000014400000F03F300000000000F04356
:1014B0000000E03F2DE9FF4F95B09B468946064668
:1014C00000250FE2252877D100242746F84A01217C
:1014D000059400E0044316F8013F203B01FA03F0B5
:1014E0001042F7D130782A2811D06FF02F033078CE
:1014F000A0F13002092A16D8059A44F0020402EB42
:10150000820203EB42021044761C0590EFE759F883
:10151000042B0592002A03DA504244F4005405904B
:1015200044F00204761C30782E2816D116F8010FEC
:1015300044F004042A280DD06FF02F023078A0F177
:101540003003092B09D807EB870302EB4303C718C5
:10155000761CF3E759F8047B761C30786C280FD0A2
:1015600006DC4C2817D068280DD06A2814D104E076
:10157000742810D07A280FD10DE044F400140AE04A
:1015800044F4801401E044F440147278824202D1A1
:1015900004F58014761C761C307866280BD013DC9A
:1015A000582877D009DC002875D04528F6D0462881
:1015B000F4D047281AD19DE118E0632835D064287B
:1015C00079D0652812D195E1702873D008DC67289E
:1015D000F1D069286FD06E280DD06F2806D1B5E004
:1015E00073282CD0752875D0782874D05A4617994E
:1015F00090476D1C75E1C4F30250022809D00328FE
:101600000DD0D9F8001004280DD00D6009F104099F
:1016100067E1D9F80010EA17C1E90052F6E7D9F8F6
:1016200000100D80F2E70D70F0E719F8041B8DF83B
:10163000001000208DF80100EA46012003E059F86F
:1016400004AB4FF0FF3061074FF0000102D40DE012
:1016500008F101018846B9420FDA8045F8DB1AF833
:1016600008100029F4D108E008F101018846814200
:10167000FADB1AF808100029F6D105985B46A0EBB2
:10168000080721463846179A00F094FA284400EBE0
:10169000080507E04DE029E10DE01AF8010B5A4674
:1016A00017999047B8F10108F7D25B4621463846B2
:1016B000179A13E142E00A220092C4F302524FF05B
:1016C000000A022A08D059F804CB032A4FEAEC7129
:1016D0000AD00DE029E02AE009F1070121F0070214
:1016E000F2E802C1914609E00FFA8CFC4FEAEC7176
:1016F000042A03D14FFA8CFC4FEAEC71002907DA77
:101700000A460021DCF1000C61EB02012D2202E00F
:10171000220504D52B228DF80420012203E0E207E4
:1017200001D02022F7E7904659E00A2102E010227A
:101730000DE010214FF0000A00910BE010224FF055
:10174000000A44F004040827009203E008224FF046
:10175000000A0092C4F30252022A05D059F804CBC1
:101760000021032A08D009E009F1070121F007024E
:10177000F2E802C1914605E01FFA8CFC042A01D16F
:101780000CF0FF0C4FF00008220728D5702806D077
:10179000009B83F0100353EA0A0305D00EE04022B9
:1017A0008DF80420012208E05CEA010206D0302214
:1017B0008DF804208DF8050002229046009B83F0EE
:1017C000080353EA0A030AD15CEA010201D1620765
:1017D00005D530228DF804204FF001087F1E5828CF
:1017E00004D034A003900EA802900DE036A0F9E7D3
:1017F00053466046009AFEF7CBFE84460398825C0F
:101800000298401E029002705CEA0100F0D102983A
:1018100006A9081A00F1200A600702D524F48034D2
:1018200000E00127574502DDA7EB0A0000E0002099
:1018300000EB0A01009005984144401A0590E0032E
:1018400006D45B462146179A059800F0B3F9054483
:10185000002706E001A85A46C05D179990476D1C05
:101860007F1C4745F6DBE0030CD55B462146179A03
:10187000059800F09FF9054404E030205A46179976
:1018800090476D1C0099481E00900029F5DC08E087
:10189000029802995A460078491C0291179990477C
:1018A0006D1CBAF10001AAF1010AF1DC65E100004A
:1018B0000928010030313233343536373839616226
:1018C00063646566000000003031323334353637EA
:1018D00038394142434445460000000000F058F9C1
:1018E0000544761C307800287FF4ECAD19B028460A
:1018F000BDE8F08F620700D4062709F1070222F045
:10190000070CFCE80223E14603F000485FEA080CFC
:1019100002D00FF2702C0DE05FEA045C02D50FF2EA
:10192000682C07E05FEAC47C02D00FF2602C01E073
:10193000AFF2700C4FF0FF3823F00043CDF850C0E9
:1019400065280CD006DC452809D046281DD047283C
:101950003DD13DE0662818D067287ED138E00021CF
:10196000112F01DB112000E0781CCDE9000106A950
:101970000EA8FFF7DDFCDDE90F010E9A03910021AF
:10198000009207F1010A04914DE04FF000400097EA
:10199000CDE9011006A90EA8FFF7CAFCDDE90F0288
:1019A00003920E9B11990022DDF80CA00093049283
:1019B00011B9791C00EB010AB7EB0A0004D4C0F19D
:1019C000FF3007F1010A0490AAEB0700019044E000
:1019D000012F00DA01270021112F01DD112000E085
:1019E0003846CDE9000106A90EA8FFF7A1FCDDE904
:1019F0000F010E9A0391002104910092BA4621072B
:101A00000CD40399514500DA8A46BAF1010F05DD7D
:101A1000009AAAF10101515C302908D0B84202DADB
:101A200010F1040F06DA0121CDE9011015E0AAF149
:101A30000101E9E7002805DC049901440491AAEBBF
:101A4000000102E0411C514500DD8A460499401A1C
:101A5000401C01904FF000400290200704D40198F0
:101A6000504501DBCDF8048000208DF84F0002982E
:101A70000DF14F07B0F1004F25D02B200E900298AA
:101A80004FF0020800280CDA404202902D200E9000
:101A900007E00A210298FEF765FD3031029007F851
:101AA000011DB8F10001A8F10108F2DC029800283C
:101AB000EFD1791E0E980870307800F0200040F0C9
:101AC000450007F8020D12A8C01B00F10708149882
:101AD000007800B1012000EB0A01019801EBE071F0
:101AE00005984144401A401E0590E00306D45B4629
:101AF0002146179A059800F05DF80544149800787F
:101B000018B15A46179990476D1CE00324D55B46DF
:101B10002146179A059800F04DF805441CE00498FA
:101B2000002807DBDDE90301884203DD0098405C03
:101B3000179901E0179930205A469047049805F10B
:101B40000105401C04900198401E019004D12E20F4
:101B50005A46179990476D1CBAF10001AAF1010A83
:101B6000DDDC05E017F8010B5A46179990476D1C0C
:101B7000B8F10001A8F10108F4DC5B462146179A90
:101B80000598ABE62D0000002B00000020000000AF
:101B90002DE9F041044600251E461746880404D46A
:101BA00005E039462020B0476D1C641EF9D5284653
:101BB000BDE8F0812DE9F041044600251E4690461F
:101BC000C80301D5302700E02027880404D505E0AC
:101BD00041463846B0476D1C641EF9D52846BDE81D
:101BE000F081000010B56FF00400FFF757F90A48C4
:101BF00000680A49B0FBF1F009490870084600780E
:101C000000EB4001C1EBC0104FF6FF7101EAC000CC
:101C10000449088010BD00000000002000127A0076
:101C2000280000202A0000200146114A12884A4359
:101C30004FF0E0235A6100229A611A46126942F07D
:101C400001021A6100BF4FF0E022106900F00102AA
:101C50001AB100F48032002AF5D04FF0E022126968
:101C600022F001024FF0E0231A6100229A617047CE
:101C70002A00002000BF054A128802F04002002A14
:101C8000F9D0C2B2014B1B1D1A80704700380140C9
:101C90008AB0002009900890079006904FF4A06049
:101CA000FEF770FFFEF716FFFFF79CFF4FF4E130E1
:101CB00000F07CFD4AE026480088022843D12548F0
:101CC000006808B9012000E00020224908600020D7
:101CD0002149224A1288885409AA21A11E48FEF7E8
:101CE000D3FF08AA1FA11C48FEF7CEFF07AA1EA11A
:101CF0001948FEF7C9FF06AA1CA11748FEF7C4FF42
:101D00000698FEF700FC04460D460798FEF7FBFB1D
:101D100006460F460898FEF7F6FB80468946099866
:101D2000FEF7F1FB824652460B4611A0CDE9008931
:101D3000CDE90267CDE90445FFF74AFA00200749DB
:101D40000880034908803220FFF76EFFB3E70000E8
:101D500030000020B40122423C000020340000206A
:101D60006331310063313200633133006331340059
:101D7000773A252E32662C252E32662C252E326699
:101D80002C252E32660D0A002DE9F04D1D460C461D
:101D900098B0174621F0004123F00043002814BFFB
:101DA0004FF0010C4FF0000C0CEB440CFE4A0CEB16
:101DB00002064FEA620C66452BD33E0018BF01268F
:101DC00006EB45061644F94A964222D3F84A53EAEE
:101DD000070C02D0944205D148B918B00020114632
:101DE000BDE8F08D002808BF4FF0000C01D04FF087
:101DF000010C0CEB440212F5001F0AD8002F14BF8F
:101E00004FF0010C4FF0000C0CEB450212F5001FD7
:101E100007D918B03A462B462146BDE8F04DFFF7EA
:101E200059BA0022DFF88CA3002CB8BF534526DA3C
:101E3000DFF884C36345A8BF022220DADFF870C34D
:101E40009C451CDCDFF874C30CEB235CBCF1140F65
:101E500008DDCCF1340627FA06FC0CFA06F6BE4281
:101E60000DD108E05FB9CCF1140623FA06FC0CFA98
:101E700006F69E4203D10CF00102C2F1020251EAC1
:101E8000000C19D1002D17DA002C18BF022A01D03E
:101E9000012A07D00220FFF745FA18B0BDE8F04D3F
:101EA000FFF710BA0220FFF73DFAFFF70BFA18B060
:101EB00081F00041BDE8F08DB7F1000C6CD15345C5
:101EC00025D104F1804212F5801201BF00280020C4
:101ED000B74918B008BFBDE8F08DB548884207DCA7
:101EE000002DA1BF6046294618B0BDE8F08D07E07F
:101EF000281E05DA80F0004118B06046BDE8F08D7C
:101F0000AF497944D1E9000118B0BDE8F08DDFF8A0
:101F1000A0C2634525D1002D1FDA19B1514512D158
:101F2000D8B909E0002840F0EC82A24A214618B056
:101F300062F31E01BDE8F08D0020214618B060F369
:101F40001E01BDE8F08D08DA18B02346BDE8F04D5B
:101F5000024600206146FEF701BC18B02146BDE8EC
:101F6000F08D514518DAB5F1804F0DD0A5F1005C28
:101F7000BCF1FF5C10D1B4F1000C0DDB18B0614670
:101F8000BDE8F04D00F0ECBB234618B00246BDE8BA
:101F9000F04D1946FEF72BBA060024F0004C3BD159
:101FA000D9B1514533D1002C06DD002DA1BF002051
:101FB000514618B0BDE8F08D002C01DD002D1BDB73
:101FC000002C13DA002D11DB012A4FF0000014BFA2
:101FD00078497C4918B0BDE8F08D022A18BF002C62
:101FE0000AD0012A08D1002C06DA0AE0002CB8BF7A
:101FF000002D11DA012A04D0002018B00146BDE8F6
:10200000F08D18B000204FF00041BDE8F08DA1F137
:102010004050B0F17F601AD0012000EBE47050EA2C
:10202000020421D0624C521E4FF0000B104304BF3B
:102030004FF0000B644C654883427CDD644A654880
:1020400093421FDD884217DB002D25DB37E0002C93
:1020500000DA4AB1022A0CBF01204FF0FF3018B05D
:10206000BDE8F04DFEF73EBA0120FFF75BF918B06E
:10207000BDE8F04DFFF730B94D4A8A4202DC002D31
:102080000ADC1CE0814202DA002D18DA04E0484B39
:10209000994220DD002D12DD0220FFF743F9FFF702
:1020A00021F905460E460022534658462146FEF7C2
:1020B0009EF918B066F31E012846BDE8F08D022097
:1020C000FFF730F9FFF716F90A46214618B062F318
:1020D0001E01BDE8F08D002230466146FEF781F911
:1020E00080460E466FF00102FEF7A7FB4FF0553217
:1020F000394BFEF779F942463346FEF778F900226C
:10210000364BFEF771F9824642463346049110463B
:102110001946FEF76CF95246049BFEF768F98A46A9
:1021200000904FF0C0422E4B40463146FEF75FF91B
:102130002C4A2B4B00E027E0CDE9060151460098E0
:10214000FEF755F982460191274A284B4046314611
:10215000FEF74DF95246019BFEF743F982460B46C6
:1021600002460591DDE90601FEF79AF8DDE906234E
:10217000002688463046FEF734F95246059BFEF7A6
:1021800033F9024600F07EB90020B1F5801F07DA6E
:10219000352230466146FEF750FB06466FF03400AC
:1021A00000EB215024E00000FFFF1F00FFFF0F00A5
:1021B0000000F03F0000F07F0000404301FCFFFF03
:1021C000D20900000000F0FF0000F0BF0000E04175
:1021D0000000F043FFFFEF3F5555D53F0000E03FC3
:1021E0004715F73FFE822B6544DF5DF80BAE543E8A
:1021F000A0F2FF300190C1F3130040F07F6141F085
:1022000040510291FE498842D8BF002004DDFD49BB
:102210008142C8BF012001DD0D9008E000200D9033
:102220000198401C01900298A0F58010029002993C
:10223000F54878440B910D9900EBC100D0E90023DB
:102240000F9330460A920B99FEF7CBF8CDE90601C1
:10225000DDE90A2130460F9BFEF722F802460B46C5
:102260000020EA49FEF77AFA059102460B460090F3
:10227000DDE90601FEF7BBF81490E5488A464FF009
:10228000000878440299006812904FF0005040EA2C
:1022900061010D980F9B01EB804000F50021099131
:1022A0000A9A1298FEF79DF832460B9BFEF79CF8AF
:1022B00042465346FEF79BF8064602914046514679
:1022C000099B129AFEF793F8DDE90623FEF78CF8D6
:1022D0003246029BFEF785F8059B009AFEF787F8C9
:1022E0000091149A0490534610461946FEF77FF861
:1022F00006460246C7480B46029106217844FEF77F
:102300008BFFCDE90510029B324610461946FEF7B9
:102310006EF8DDE90532FEF76AF805910646534688
:1023200040461946149AFDF7BBFF009B049AFEF73E
:102330005EF83246059BFDF7B3FFCDE90510424636
:10234000534610461946FEF752F80022B24B02914E
:102350000A90FDF7A5FFDDE90532FDF7A1FF0E4666
:102360004246AD4B4046FEF73CF8029B0A9AFEF708
:1023700038F8DDE90532FEF737F8424602910A9057
:10238000334610465146FEF732F8CDE90601534672
:10239000149A02990A98FEF72AF88A460290334660
:1023A000424600990498FEF722F85346029AFDF738
:1023B00077FF82460B4602460591DDE90601FDF7EF
:1023C0006FFFDDE90623002088460646FEF709F880
:1023D0005246059BFEF708F8824609914FF060428D
:1023E0008E4B30464146FEF702F8049006918C4A27
:1023F0008A4B50460999FDF7FAFF82460291894AB5
:10240000894B30464146FDF7F2FF5246029BFDF7ED
:1024100047FF864B7B440D9A03EBC203D3E90023AD
:10242000FDF73EFF0E9007910198FEF75BF80591CE
:10243000DDE9061382460E9A0498FDF731FF7C4AC7
:102440007A440D9B02EBC303D3E90023009302926D
:10245000FDF726FF5246059BFDF722FF0026884622
:1024600052463046059BFDF7BCFF009B029AFDF7E4
:10247000B8FF069B049AFDF7B4FF079B0E9AFDF781
:10248000B3FF024600200B46029038462946FDF76E
:10249000AEFF824601912B4638461946029AFDF757
:1024A000A0FF32464346FDF7A2FF5246019BFDF7CF
:1024B000F7FE07468A463246434629460298FDF70C
:1024C00096FF05460E463A465346FDF7E9FE594A41
:1024D0008846914221DBA8EB020353EA000210D1A7
:1024E0002A463346FDF77DFFCDE90401524A534B9E
:1024F00038465146FDF7D4FEDDE90423FEF7CCF95A
:1025000021D20220FEF70EFFFEF7ECFE0A4621461E
:1025100018B062F31E01BDE8F08D494B28F000426F
:102520009A4210D3474A08EB020353EA00027FF4B1
:10253000C6AD2A463346FDF754FF3A465346FEF7EA
:10254000ABF97FF6BCAD0022019228F000403E4975
:102550003E4A01EB2051824223DA481C4FF480119D
:1025600021FA00F040443A4AC0F30A517A44394B08
:10257000A1F2FF31CB4020EA0303C0F3130040F483
:102580008010C1F11401C84012680190B8F1000F29
:10259000BCBF4042019028463146FDF722FF054668
:1025A0000E462A46334638465146FDF779FE4FF02F
:1025B00000084246284B40460591FDF718FFCDE93B
:1025C0000601264A264B40460599FDF710FF00916B
:1025D00002902A46334640460599FDF702FF3A46E7
:1025E0005346FDF701FF1F4A1F4BFDF700FF009BFD
:1025F000029AFDF755FE0746884602460B4635E02F
:102600008E9803007AB60B001A0600000000F03F17
:1026100052060000800500000000084009C7EE3F98
:10262000FD033ADCF5015B14E02F3EBE58040000C8
:102630001C04000000009040FE822B654715973C6B
:1026400000CC904000346F3F01FCFFFF0000E03FF2
:1026500068030000FFFF0F00432EE63F396CA80C13
:10266000615C20BEEF39FAFE422EE63FDDE906014D
:10267000FDF716FEDDE9062305460E46FDF7B1FE21
:102680003A464346FDF7B0FE0F462A4633460090D1
:1026900010461946FDF7ABFE824602462E48884694
:1026A0000B4605217844FEF7B7FD52464346FDF739
:1026B0009EFE2A463346FDF797FE80468A463B46F5
:1026C00028463146009AFDF792FE3B46009AFDF7F8
:1026D000E7FD0691009000224FF0804340465146AE
:1026E000FDF77FFE0F460C90424653462846314682
:1026F000FDF77DFE3B460C9AFEF730F8069B009AEC
:10270000FDF76FFE2A463346FDF76BFE0022134BA2
:10271000FDF76AFE054601980E4601EB00510815CB
:10272000002810DC28463146019AFEF786F8FEF7AD
:102730005FFD042808BFFEF7DDFD28463146019AFB
:10274000FEF77BF805460B4618B02A465846214648
:10275000BDE8F04DFDF74BBE080200000000F03F61
:102760002DE9F04106460F46FEF7D0F8041E0D464F
:1027700018BF0120284320F00040C0F17F6000F125
:10278000E040C00F0ED0301C18BF0120384320F0AD
:102790000040C0F17F6000F1E040C00F04BF0120A5
:1027A000FEF7C0FD20462946BDE8F08110B586B091
:1027B0000446012144F20400FEF780FA4FF4007051
:1027C000ADF8140003208DF8160018208DF81700BE
:1027D00005A91C48FEF7EEF84FF48060ADF8140030
:1027E00004208DF8170005A91648FEF7E3F8252008
:1027F0008DF8000003208DF801008DF80200012003
:102800008DF803006846FEF785F901940020ADF8C5
:102810000800ADF80A00ADF80C00ADF810000C206F
:10282000ADF80E0001A90848FEF75EFC012240F257
:1028300025510548FEF732FC01210348FEF7F8FB5D
:1028400006B010BD00080140003801400000000043
:10285000000000000000F03F000000000000F83F12
:1028600000000000000000000000004003B8E23F4C
:10287000000000000000000006D0CF43EBFD4C3EFE
:10288000033333333333E33FFFAB6FDBB66DDB3FF3
:102890004D268F515555D53F01411DA96074D13F3B
:1028A00065DBC9934A86CD3FEF4E454A287ECA3F35
:1028B0003E5555555555C53F93BDBE166CC166BFB7
:1028C0002CDE25AF6A56113FF16BD2C541BDBBBEB0
:1028D000D0A4BE726937663E000000000000000010
:1028E00000290008000000203C000000041300083C
:1028F0003C2900083C0000200406000014130008D6
:1029000000A24A04000000000000000001020304CD
:102910000607080900000000010203040102030485
:102920000607080902040608000000000000000075
:0C2930000000000000000000000000009B
:0400000508000131BD
:00000001FF
